:1000000000308A0060280000FF00030E8301A10079
:100010000A08A0008A010408A2007708A300780853
:10002000A4007908A5007A08A600831383128C30F7
:100030008400801E1D288C1A2E2822088400230884
:10004000F7002408F8002508F9002608FA0020081F
:100050008A00210E8300FF0E7F0E09008A110A120A
:1000600031288C1E31281A08AF002F08613C031D6F
:100070003B283230AD002F08733C031D412864300B
:10008000AD002F08643C031D47289630AD008C124C
:100090008A110A121D282E308400831300080319C8
:1000A0005F280130F800F701F70B5428F80B5328AC
:1000B0004A30F700F70B5A285D28800B51280800BA
:1000C000840183131F308305613083168F000F086E
:1000D00003178711193003139900A6309800903048
:1000E000831298006430AD00831603170908C039E5
:1000F000890003131F129F12003003178800831218
:100100008701880189010313A701A80183168C16B2
:10011000C03083128B0483168612831286128316D4
:100120000612831206128316861183128611831615
:100130000611831206118316061183120611831607
:100140008612831286162D08AE004B208316861267
:100150008312861283160612831206162D08AE002D
:100160004B20831606128312061283168611831201
:1001700086152D08AE004B2083168611831286113A
:1001800083160611831206152D08AE004B209B28FE
:0201900063000A
:04400E00E52CFF3F5F
:00000001FF
;PIC16F887
;CRC=FD79  CREATED="04-mar.-20 13:50"
